S012000074656D7053656E736F722E73726563E2
S113000045C0000053C0000051C000004FC00000B4
S11300104DC000004BC0000049C0000047C00000B4
S113002045C0000043C0000041C000003FC00000C4
S11300303DC000003BC0000039C000005EC00000AD
S113004035C0000033C0000031C000002FC00000E4
S11300502DC000002BC0000029C0000027C00000F4
S113006025C0000023C0000021C000001FC0000004
S11300701DC000001BC0000019C0000017C0000014
S113008015C0000013C0000011C0000011241FBEE1
S1130090CFEFD0E1DEBFCDBF21E0A0E0B1E001C0F1
S11300A01D92AA30B207E1F790D0B7C1A9CF86E17B
S11300B087BB80E58DB981E08EB90895909398004F
S11300C08093990088E180939A008EE080939D004C
S11300D008958AB386608ABB0895EBE9F0E09081C5
S11300E095FFFDCF80939C00089587B7826087BFFA
S11300F08FE483BF87E081BF08951F920F920FB6EC
S11301000F9211248F939F9380910801909109017C
S1130110019690930901809308019F918F910F900C
S11301200FBE0F901F901895CF93DF93CDB7DEB716
S113013062970FB6F894DEBF0FBECDBF18BA8CEC31
S11301408FB980E188BB18BA94E49FB988BB8091C9
S113015008019091090184369105C9F710920901AB
S11301601092080118BA80E188BB18BA88BB60E015
S113017070E07B8189819A81682B792B072E000C92
S1130180880B990B5BD020E030E040E85DE391D030
S11301906093040170930501809306019093070115
S11301A09BB384E089278BBB6091040170910501A6
S11301B0809106019091070162960FB6F894DEBF14
S11301C00FBECDBFDF91CF9108958FDF70DF87E63B
S11301D090E074DF7EDF9BB384E089278BBB9BB305
S11301E082E089278BBB7894C0E0D1E012E09CDFE9
S11301F0262F462F572F682F792F409300015093B5
S113020001016093020170930301822F66DF8981EB
S113021064DF8A8162DF8B8160DF809108019091C5
S1130220090184369105C9F78BB381278BBB1092E2
S1130230090110920801DBCFE89409C097FB3EF452
S113024090958095709561957F4F8F4F9F4F99231F
S1130250A9F0F92F96E9BB279395F695879577959D
S11302606795B795F111F8CFFAF4BB0F11F460FF5D
S11302701BC06F5F7F4F8F4F9F4F16C0882311F0B5
S113028096E911C0772321F09EE8872F762F05C0C9
S1130290662371F096E8862F70E060E02AF09A9564
S11302A0660F771F881FDAF7880F9695879597F959
S11302B008950BD078C069D028F06ED018F095233B
S11302C009F05AC05FC01124A2C07ED0A0F3959F4C
S11302D0D1F3950F50E0551F629FF001729FBB2729
S11302E0F00DB11D639FAA27F00DB11DAA1F649FD5
S11302F06627B00DA11D661F829F2227B00DA11D88
S1130300621F739FB00DA11D621F839FA00D611D0D
S1130310221F749F3327A00D611D231F849F600D2E
S1130320211D822F762F6A2F11249F5750408AF067
S1130330E1F088234AF0EE0FFF1FBB1F661F771FF3
S1130340881F91505040A9F79E3F510570F014C08A
S11303505EC05F3FECF3983EDCF386957795679536
S1130360B795F795E7959F5FC1F7FE2B880F911D11
S11303709695879597F9089597F99F6780E870E0B7
S113038060E008959FEF80EC089500240A94161607
S1130390170618060906089500240A94121613066F
S11303A0140605060895092E0394000C11F48823FD
S11303B052F0BB0F40F4BF2B11F460FF04C06F5F19
S11303C07F4F8F4F9F4F089557FD9058440F551FEF
S11303D059F05F3F71F04795880F97FB991F61F0C3
S11303E09F3F79F087950895121613061406551F3A
S11303F0F2CF4695F1DF08C0161617061806991FA6
S1130400F1CF86957105610508940895E894BB279A
S111041066277727CB0197F90895F894FFCF5C
S9030000FC
