S012000074656D7053656E736F722E73726563E2
S113000045C0000060C000005EC000005CC000008D
S11300105AC0000058C0000056C0000054C0000080
S113002052C0000050C000004EC000004CC0000090
S11300304AC0000048C0000046C0000060C0000084
S113004042C0000040C000003EC000003CC00000B0
S11300503AC0000038C0000036C0000034C00000C0
S113006032C0000030C000002EC000002CC00000D0
S11300702AC0000028C0000026C0000024C00000E0
S113008022C0000020C000001EC0000011241FBEBA
S1130090CFEFD0E1DEBFCDBF11E0A0E0B1E0EAE9EF
S11300A0F1E000E00BBF02C007900D92AE30B10743
S11300B0D9F721E0AEE0B1E001C01D92A031B20752
S11300C0E1F734D068C09CCF909398008093990056
S11300D088E180939A008EE080939D000895EBE977
S11300E0F0E0908195FFFDCF80939C00089587B741
S11300F0826087BF8FE483BF87E081BF08951F922A
S11301000F920FB60F9211248F939F9380910E013B
S113011090910F01019690930F0180930E019F918E
S11301208F910F900FBE0F901F901895CF93DF9370
S1130130CDB7DEB72C970FB6F894DEBF0FBECDBF98
S1130140D6DF87E690E0C0DFD29A8BB38BBB78947E
S11301508CE0E0E0F1E0DE01119601900D928A95C9
S1130160E1F77E018DE0E80EF11C8E010F5F1F4F59
S1130170F80181918F01B3DF0E151F05C9F7809136
S11301800E0190910F0184369105C9F710920F0169
S10D019010920E01EACFF894FFCF9D
S111019A0A0D5A61586152536B4164490000CA
S9030000FC
